{
  "contractName": "ExamSystem",
  "abi": [
    {
      "anonymous": false,
      "inputs": [
        {
          "indexed": true,
          "internalType": "address",
          "name": "student",
          "type": "address"
        },
        {
          "indexed": true,
          "internalType": "uint256",
          "name": "examId",
          "type": "uint256"
        },
        {
          "indexed": false,
          "internalType": "uint8",
          "name": "score",
          "type": "uint8"
        },
        {
          "indexed": false,
          "internalType": "string",
          "name": "examHash",
          "type": "string"
        },
        {
          "indexed": false,
          "internalType": "uint256",
          "name": "submittedAt",
          "type": "uint256"
        }
      ],
      "name": "SubmissionCreated",
      "type": "event"
    },
    {
      "inputs": [
        {
          "internalType": "uint256",
          "name": "examId",
          "type": "uint256"
        },
        {
          "components": [
            {
              "internalType": "uint256",
              "name": "questionId",
              "type": "uint256"
            },
            {
              "internalType": "uint8",
              "name": "chosenOption",
              "type": "uint8"
            },
            {
              "internalType": "bool",
              "name": "isCorrect",
              "type": "bool"
            }
          ],
          "internalType": "struct ExamSystem.StudentAnswer[]",
          "name": "studentAnswers",
          "type": "tuple[]"
        },
        {
          "internalType": "string",
          "name": "examHash",
          "type": "string"
        },
        {
          "internalType": "uint8[]",
          "name": "correctAnswers",
          "type": "uint8[]"
        }
      ],
      "name": "submitExam",
      "outputs": [],
      "stateMutability": "nonpayable",
      "type": "function"
    },
    {
      "inputs": [
        {
          "internalType": "uint256",
          "name": "examId",
          "type": "uint256"
        },
        {
          "internalType": "address",
          "name": "student",
          "type": "address"
        }
      ],
      "name": "getSubmission",
      "outputs": [
        {
          "internalType": "address",
          "name": "studentAddress",
          "type": "address"
        },
        {
          "internalType": "uint256",
          "name": "examId_",
          "type": "uint256"
        },
        {
          "internalType": "uint8",
          "name": "score",
          "type": "uint8"
        },
        {
          "internalType": "string",
          "name": "examHash",
          "type": "string"
        },
        {
          "internalType": "uint256",
          "name": "submittedAt",
          "type": "uint256"
        },
        {
          "components": [
            {
              "internalType": "uint256",
              "name": "questionId",
              "type": "uint256"
            },
            {
              "internalType": "uint8",
              "name": "chosenOption",
              "type": "uint8"
            },
            {
              "internalType": "bool",
              "name": "isCorrect",
              "type": "bool"
            }
          ],
          "internalType": "struct ExamSystem.StudentAnswer[]",
          "name": "answers",
          "type": "tuple[]"
        }
      ],
      "stateMutability": "view",
      "type": "function",
      "constant": true
    },
    {
      "inputs": [
        {
          "internalType": "address",
          "name": "student",
          "type": "address"
        }
      ],
      "name": "getSubmittedExamIds",
      "outputs": [
        {
          "internalType": "uint256[]",
          "name": "",
          "type": "uint256[]"
        }
      ],
      "stateMutability": "view",
      "type": "function",
      "constant": true
    }
  ],
  "bytecode": "0x608060405234801561001057600080fd5b506118cc806100206000396000f3fe608060405234801561001057600080fd5b50600436106100415760003560e01c8063365b0f0b146100465780633afa536e1461006257806355f0e22114610092575b600080fd5b610060600480360381019061005b9190610f5c565b6100c7565b005b61007c60048036038101906100779190610ef7565b6107c0565b604051610089919061141b565b60405180910390f35b6100ac60048036038101906100a79190610f20565b610a2f565b6040516100be969594939291906113ac565b60405180910390f35b81819050868690501461010f576040517f08c379a00000000000000000000000000000000000000000000000000000000081526004016101069061149d565b60405180910390fd5b60008686905011610155576040517f08c379a000000000000000000000000000000000000000000000000000000000815260040161014c9061145d565b60405180910390fd5b6000848490501161019b576040517f08c379a0000000000000000000000000000000000000000000000000000000008152600401610192906114dd565b60405180910390fd5b600087116101de576040517f08c379a00000000000000000000000000000000000000000000000000000000081526004016101d5906114bd565b60405180910390fd5b6001600088815260200190815260200160002060003373ffffffffffffffffffffffffffffffffffffffff1673ffffffffffffffffffffffffffffffffffffffff168152602001908152602001600020600061023a9190610ccc565b6000805b878790508110156105bd576004888883818110610284577f4e487b7100000000000000000000000000000000000000000000000000000000600052603260045260246000fd5b905060600201602001602081019061029c9190611015565b60ff16106102df576040517f08c379a00000000000000000000000000000000000000000000000000000000081526004016102d69061147d565b60405180910390fd5b600484848381811061031a577f4e487b7100000000000000000000000000000000000000000000000000000000600052603260045260246000fd5b905060200201602081019061032f9190611015565b60ff1610610372576040517f08c379a00000000000000000000000000000000000000000000000000000000081526004016103699061143d565b60405180910390fd5b60008484838181106103ad577f4e487b7100000000000000000000000000000000000000000000000000000000600052603260045260246000fd5b90506020020160208101906103c29190611015565b60ff168989848181106103fe577f4e487b7100000000000000000000000000000000000000000000000000000000600052603260045260246000fd5b90506060020160200160208101906104169190611015565b60ff16149050801561043157828061042d90611789565b9350505b600160008b815260200190815260200160002060003373ffffffffffffffffffffffffffffffffffffffff1673ffffffffffffffffffffffffffffffffffffffff16815260200190815260200160002060405180606001604052808b8b868181106104c5577f4e487b7100000000000000000000000000000000000000000000000000000000600052603260045260246000fd5b9050606002016000013581526020018b8b8681811061050d577f4e487b7100000000000000000000000000000000000000000000000000000000600052603260045260246000fd5b90506060020160200160208101906105259190611015565b60ff16815260200183151581525090806001815401808255809150506001900390600052602060002090600202016000909190919091506000820151816000015560208201518160010160006101000a81548160ff021916908360ff16021790555060408201518160010160016101000a81548160ff02191690831515021790555050505080806105b590611740565b91505061023e565b5060006064888890506103e88460ff166105d7919061162d565b61ffff166105e591906115cb565b6105ef91906115fc565b90506040518060a001604052803373ffffffffffffffffffffffffffffffffffffffff1681526020018a81526020018260ff16815260200187878080601f016020809104026020016040519081016040528093929190818152602001838380828437600081840152601f19601f820116905080830192505050505050508152602001428152506000808b815260200190815260200160002060003373ffffffffffffffffffffffffffffffffffffffff1673ffffffffffffffffffffffffffffffffffffffff16815260200190815260200160002060008201518160000160006101000a81548173ffffffffffffffffffffffffffffffffffffffff021916908373ffffffffffffffffffffffffffffffffffffffff1602179055506020820151816001015560408201518160020160006101000a81548160ff021916908360ff1602179055506060820151816003019080519060200190610752929190610cf0565b5060808201518160040155905050883373ffffffffffffffffffffffffffffffffffffffff167f71fa331ec1a3881f9d3f18d14c2f25d95c9db459ceeaf857a39444c35c57d73e838989426040516107ad94939291906114fd565b60405180910390a3505050505050505050565b6060600060025467ffffffffffffffff811115610806577f4e487b7100000000000000000000000000000000000000000000000000000000600052604160045260246000fd5b6040519080825280602002602001820160405280156108345781602001602082028036833780820191505090505b509050600080600190505b600254811161090b57600080600083815260200190815260200160002060008773ffffffffffffffffffffffffffffffffffffffff1673ffffffffffffffffffffffffffffffffffffffff1681526020019081526020016000206004015411156108f857808383815181106108dd577f4e487b7100000000000000000000000000000000000000000000000000000000600052603260045260246000fd5b60200260200101818152505081806108f490611740565b9250505b808061090390611740565b91505061083f565b5060008167ffffffffffffffff81111561094e577f4e487b7100000000000000000000000000000000000000000000000000000000600052604160045260246000fd5b60405190808252806020026020018201604052801561097c5781602001602082028036833780820191505090505b50905060005b82811015610a23578381815181106109c3577f4e487b7100000000000000000000000000000000000000000000000000000000600052603260045260246000fd5b6020026020010151828281518110610a04577f4e487b7100000000000000000000000000000000000000000000000000000000600052603260045260246000fd5b6020026020010181815250508080610a1b90611740565b915050610982565b50809350505050919050565b600080600060606000606060008060008a815260200190815260200160002060008973ffffffffffffffffffffffffffffffffffffffff1673ffffffffffffffffffffffffffffffffffffffff1681526020019081526020016000206040518060a00160405290816000820160009054906101000a900473ffffffffffffffffffffffffffffffffffffffff1673ffffffffffffffffffffffffffffffffffffffff1673ffffffffffffffffffffffffffffffffffffffff168152602001600182015481526020016002820160009054906101000a900460ff1660ff1660ff168152602001600382018054610b239061170e565b80601f0160208091040260200160405190810160405280929190818152602001828054610b4f9061170e565b8015610b9c5780601f10610b7157610100808354040283529160200191610b9c565b820191906000526020600020905b815481529060010190602001808311610b7f57829003601f168201915b50505050508152602001600482015481525050905080600001518160200151826040015183606001518460800151600160008f815260200190815260200160002060008e73ffffffffffffffffffffffffffffffffffffffff1673ffffffffffffffffffffffffffffffffffffffff16815260200190815260200160002080805480602002602001604051908101604052809291908181526020016000905b82821015610caf5783829060005260206000209060020201604051806060016040529081600082015481526020016001820160009054906101000a900460ff1660ff1660ff1681526020016001820160019054906101000a900460ff16151515158152505081526020019060010190610c3b565b505050509050965096509650965096509650509295509295509295565b5080546000825560020290600052602060002090810190610ced9190610d76565b50565b828054610cfc9061170e565b90600052602060002090601f016020900481019282610d1e5760008555610d65565b82601f10610d3757805160ff1916838001178555610d65565b82800160010185558215610d65579182015b82811115610d64578251825591602001919060010190610d49565b5b509050610d729190610dbd565b5090565b5b80821115610db9576000808201600090556001820160006101000a81549060ff02191690556001820160016101000a81549060ff021916905550600201610d77565b5090565b5b80821115610dd6576000816000905550600101610dbe565b5090565b600081359050610de981611851565b92915050565b60008083601f840112610e0157600080fd5b8235905067ffffffffffffffff811115610e1a57600080fd5b602083019150836060820283011115610e3257600080fd5b9250929050565b60008083601f840112610e4b57600080fd5b8235905067ffffffffffffffff811115610e6457600080fd5b602083019150836020820283011115610e7c57600080fd5b9250929050565b60008083601f840112610e9557600080fd5b8235905067ffffffffffffffff811115610eae57600080fd5b602083019150836001820283011115610ec657600080fd5b9250929050565b600081359050610edc81611868565b92915050565b600081359050610ef18161187f565b92915050565b600060208284031215610f0957600080fd5b6000610f1784828501610dda565b91505092915050565b60008060408385031215610f3357600080fd5b6000610f4185828601610ecd565b9250506020610f5285828601610dda565b9150509250929050565b60008060008060008060006080888a031215610f7757600080fd5b6000610f858a828b01610ecd565b975050602088013567ffffffffffffffff811115610fa257600080fd5b610fae8a828b01610def565b9650965050604088013567ffffffffffffffff811115610fcd57600080fd5b610fd98a828b01610e83565b9450945050606088013567ffffffffffffffff811115610ff857600080fd5b6110048a828b01610e39565b925092505092959891949750929550565b60006020828403121561102757600080fd5b600061103584828501610ee2565b91505092915050565b600061104a838361132e565b60608301905092915050565b60006110628383611370565b60208301905092915050565b61107781611669565b82525050565b60006110888261155d565b6110928185611598565b935061109d8361153d565b8060005b838110156110ce5781516110b5888261103e565b97506110c08361157e565b9250506001810190506110a1565b5085935050505092915050565b60006110e682611568565b6110f081856115a9565b93506110fb8361154d565b8060005b8381101561112c5781516111138882611056565b975061111e8361158b565b9250506001810190506110ff565b5085935050505092915050565b6111428161167b565b82525050565b600061115483856115ba565b93506111618385846116cc565b61116a83611840565b840190509392505050565b600061118082611573565b61118a81856115ba565b935061119a8185602086016116db565b6111a381611840565b840191505092915050565b60006111bb6016836115ba565b91507f496e76616c696420636f727265637420616e73776572000000000000000000006000830152602082019050919050565b60006111fb601d836115ba565b91507f4d7573742068617665206174206c65617374206f6e6520616e737765720000006000830152602082019050919050565b600061123b6015836115ba565b91507f496e76616c69642063686f73656e206f7074696f6e00000000000000000000006000830152602082019050919050565b600061127b601f836115ba565b91507f4e756d626572206f6620616e737765727320646f65736e2774206d61746368006000830152602082019050919050565b60006112bb600f836115ba565b91507f496e76616c6964206578616d20494400000000000000000000000000000000006000830152602082019050919050565b60006112fb6019836115ba565b91507f4578616d20686173682063616e6e6f7420626520656d707479000000000000006000830152602082019050919050565b6060820160008201516113446000850182611370565b506020820151611357602085018261138e565b50604082015161136a6040850182611139565b50505050565b611379816116b5565b82525050565b611388816116b5565b82525050565b611397816116bf565b82525050565b6113a6816116bf565b82525050565b600060c0820190506113c1600083018961106e565b6113ce602083018861137f565b6113db604083018761139d565b81810360608301526113ed8186611175565b90506113fc608083018561137f565b81810360a083015261140e818461107d565b9050979650505050505050565b6000602082019050818103600083015261143581846110db565b905092915050565b60006020820190508181036000830152611456816111ae565b9050919050565b60006020820190508181036000830152611476816111ee565b9050919050565b600060208201905081810360008301526114968161122e565b9050919050565b600060208201905081810360008301526114b68161126e565b9050919050565b600060208201905081810360008301526114d6816112ae565b9050919050565b600060208201905081810360008301526114f6816112ee565b9050919050565b6000606082019050611512600083018761139d565b8181036020830152611525818587611148565b9050611534604083018461137f565b95945050505050565b6000819050602082019050919050565b6000819050602082019050919050565b600081519050919050565b600081519050919050565b600081519050919050565b6000602082019050919050565b6000602082019050919050565b600082825260208201905092915050565b600082825260208201905092915050565b600082825260208201905092915050565b60006115d6826116b5565b91506115e1836116b5565b9250826115f1576115f06117e2565b5b828204905092915050565b6000611607826116bf565b9150611612836116bf565b925082611622576116216117e2565b5b828204905092915050565b600061163882611687565b915061164383611687565b92508161ffff048311821515161561165e5761165d6117b3565b5b828202905092915050565b600061167482611695565b9050919050565b60008115159050919050565b600061ffff82169050919050565b600073ffffffffffffffffffffffffffffffffffffffff82169050919050565b6000819050919050565b600060ff82169050919050565b82818337600083830152505050565b60005b838110156116f95780820151818401526020810190506116de565b83811115611708576000848401525b50505050565b6000600282049050600182168061172657607f821691505b6020821081141561173a57611739611811565b5b50919050565b600061174b826116b5565b91507fffffffffffffffffffffffffffffffffffffffffffffffffffffffffffffffff82141561177e5761177d6117b3565b5b600182019050919050565b6000611794826116bf565b915060ff8214156117a8576117a76117b3565b5b600182019050919050565b7f4e487b7100000000000000000000000000000000000000000000000000000000600052601160045260246000fd5b7f4e487b7100000000000000000000000000000000000000000000000000000000600052601260045260246000fd5b7f4e487b7100000000000000000000000000000000000000000000000000000000600052602260045260246000fd5b6000601f19601f8301169050919050565b61185a81611669565b811461186557600080fd5b50565b611871816116b5565b811461187c57600080fd5b50565b611888816116bf565b811461189357600080fd5b5056fea26469706673582212209c745c829b8698604d3b82414cdf3075741b301cbcb170026a5ba2fc6edc952a64736f6c63430008000033",
  "immutableReferences": {},
  "source": "// SPDX-License-Identifier: UNLICENSED\r\npragma solidity ^0.8.0;\r\n\r\ncontract ExamSystem {\r\n    struct StudentAnswer {\r\n        uint256 questionId;\r\n        uint8 chosenOption;\r\n        bool isCorrect;\r\n    }\r\n\r\n    struct ExamSubmission {\r\n        address student;\r\n        uint256 examId;\r\n        uint8 score; // im t 0-10\r\n        string examHash;\r\n        uint256 submittedAt;\r\n    }\r\n\r\n    mapping(uint256 => mapping(address => ExamSubmission)) private _submissions;\r\n    mapping(uint256 => mapping(address => StudentAnswer[])) private _answers;\r\n    uint256 private examCount;\r\n    \r\n    event SubmissionCreated(\r\n        address indexed student, \r\n        uint256 indexed examId, \r\n        uint8 score, \r\n        string examHash,\r\n        uint256 submittedAt\r\n    );\r\n\r\n    function submitExam(\r\n        uint256 examId,\r\n        StudentAnswer[] calldata studentAnswers,\r\n        string calldata examHash,\r\n        uint8[] calldata correctAnswers\r\n    ) external {\r\n        require(studentAnswers.length == correctAnswers.length, \"Number of answers doesn't match\");\r\n        require(studentAnswers.length > 0, \"Must have at least one answer\");\r\n        require(bytes(examHash).length > 0, \"Exam hash cannot be empty\");\r\n        require(examId > 0, \"Invalid exam ID\");\r\n\r\n        // Clear previous submission if exists\r\n        delete _answers[examId][msg.sender];\r\n\r\n        uint8 correctCount = 0;\r\n\r\n        for (uint256 i = 0; i < studentAnswers.length; i++) {\r\n            require(studentAnswers[i].chosenOption < 4, \"Invalid chosen option\");\r\n            require(correctAnswers[i] < 4, \"Invalid correct answer\");\r\n            \r\n            bool isCorrect = (studentAnswers[i].chosenOption == correctAnswers[i]);\r\n            if (isCorrect) {\r\n                correctCount++;\r\n            }\r\n\r\n            _answers[examId][msg.sender].push(StudentAnswer({\r\n                questionId: studentAnswers[i].questionId,\r\n                chosenOption: studentAnswers[i].chosenOption,\r\n                isCorrect: isCorrect\r\n            }));\r\n        }\r\n\r\n        // Tnh im trn thang 10 (lm trn 1 ch s thp phn)\r\n        uint8 score = uint8((correctCount * 1000) / studentAnswers.length) / 100;\r\n\r\n        _submissions[examId][msg.sender] = ExamSubmission({\r\n            student: msg.sender,\r\n            examId: examId,\r\n            score: score,\r\n            examHash: examHash,\r\n            submittedAt: block.timestamp\r\n        });\r\n\r\n        emit SubmissionCreated(msg.sender, examId, score, examHash, block.timestamp);\r\n    }\r\n\r\n    function getSubmission(uint256 examId, address student) external view returns (\r\n        address studentAddress,\r\n        uint256 examId_,\r\n        uint8 score,\r\n        string memory examHash,\r\n        uint256 submittedAt,\r\n        StudentAnswer[] memory answers\r\n    ) {\r\n        ExamSubmission memory submission = _submissions[examId][student];\r\n        return (\r\n            submission.student,\r\n            submission.examId,\r\n            submission.score,\r\n            submission.examHash,\r\n            submission.submittedAt,\r\n            _answers[examId][student]\r\n        );\r\n    }\r\n\r\n    function getSubmittedExamIds(address student) external view returns (uint256[] memory) {\r\n        uint256[] memory examIds = new uint256[](examCount); // `examCount` l tng s bi kim tra\r\n        uint256 count = 0;\r\n\r\n        for (uint256 i = 1; i <= examCount; i++) {\r\n            if (_submissions[i][student].submittedAt > 0) {\r\n                examIds[count] = i;\r\n                count++;\r\n            }\r\n        }\r\n\r\n        // Resize array to actual count\r\n        uint256[] memory result = new uint256[](count);\r\n        for (uint256 j = 0; j < count; j++) {\r\n            result[j] = examIds[j];\r\n        }\r\n\r\n        return result;\r\n    }\r\n}",
  "sourcePath": "D:\\BLOCKCHAIN\\TL\\New folder\\contracts\\ExamSystem.sol",
  "compiler": {
    "name": "solc",
    "version": "0.8.0+commit.c7dfd78e.Emscripten.clang"
  },
  "schemaVersion": "3.4.16",
  "updatedAt": "2025-03-30T11:27:32.125Z",
  "networkType": "ethereum",
  "devdoc": {
    "kind": "dev",
    "methods": {},
    "version": 1
  },
  "userdoc": {
    "kind": "user",
    "methods": {},
    "version": 1
  }
}